{
  "_format": "hh-sol-artifact-1",
  "contractName": "SpellBlocAchievements",
  "sourceName": "contracts/SpellBlocAchievements.sol",
  "abi": [
    {
      "inputs": [],
      "stateMutability": "nonpayable",
      "type": "constructor"
    },
    {
      "anonymous": false,
      "inputs": [
        {
          "indexed": true,
          "internalType": "uint256",
          "name": "achievementId",
          "type": "uint256"
        },
        {
          "indexed": false,
          "internalType": "string",
          "name": "name",
          "type": "string"
        },
        {
          "indexed": false,
          "internalType": "enum SpellBlocAchievements.AchievementType",
          "name": "achievementType",
          "type": "uint8"
        },
        {
          "indexed": false,
          "internalType": "enum SpellBlocAchievements.Rarity",
          "name": "rarity",
          "type": "uint8"
        }
      ],
      "name": "AchievementCreated",
      "type": "event"
    },
    {
      "anonymous": false,
      "inputs": [
        {
          "indexed": true,
          "internalType": "address",
          "name": "user",
          "type": "address"
        },
        {
          "indexed": true,
          "internalType": "uint256",
          "name": "tokenId",
          "type": "uint256"
        },
        {
          "indexed": true,
          "internalType": "uint256",
          "name": "achievementId",
          "type": "uint256"
        },
        {
          "indexed": false,
          "internalType": "string",
          "name": "achievementName",
          "type": "string"
        }
      ],
      "name": "AchievementMinted",
      "type": "event"
    },
    {
      "anonymous": false,
      "inputs": [
        {
          "indexed": true,
          "internalType": "address",
          "name": "user",
          "type": "address"
        },
        {
          "indexed": true,
          "internalType": "uint256",
          "name": "achievementId",
          "type": "uint256"
        },
        {
          "indexed": false,
          "internalType": "uint256",
          "name": "price",
          "type": "uint256"
        }
      ],
      "name": "AchievementPurchased",
      "type": "event"
    },
    {
      "anonymous": false,
      "inputs": [
        {
          "indexed": true,
          "internalType": "address",
          "name": "owner",
          "type": "address"
        },
        {
          "indexed": true,
          "internalType": "address",
          "name": "approved",
          "type": "address"
        },
        {
          "indexed": true,
          "internalType": "uint256",
          "name": "tokenId",
          "type": "uint256"
        }
      ],
      "name": "Approval",
      "type": "event"
    },
    {
      "anonymous": false,
      "inputs": [
        {
          "indexed": true,
          "internalType": "address",
          "name": "owner",
          "type": "address"
        },
        {
          "indexed": true,
          "internalType": "address",
          "name": "operator",
          "type": "address"
        },
        {
          "indexed": false,
          "internalType": "bool",
          "name": "approved",
          "type": "bool"
        }
      ],
      "name": "ApprovalForAll",
      "type": "event"
    },
    {
      "anonymous": false,
      "inputs": [
        {
          "indexed": false,
          "internalType": "uint256",
          "name": "_fromTokenId",
          "type": "uint256"
        },
        {
          "indexed": false,
          "internalType": "uint256",
          "name": "_toTokenId",
          "type": "uint256"
        }
      ],
      "name": "BatchMetadataUpdate",
      "type": "event"
    },
    {
      "anonymous": false,
      "inputs": [
        {
          "indexed": false,
          "internalType": "uint256",
          "name": "_tokenId",
          "type": "uint256"
        }
      ],
      "name": "MetadataUpdate",
      "type": "event"
    },
    {
      "anonymous": false,
      "inputs": [
        {
          "indexed": true,
          "internalType": "address",
          "name": "previousOwner",
          "type": "address"
        },
        {
          "indexed": true,
          "internalType": "address",
          "name": "newOwner",
          "type": "address"
        }
      ],
      "name": "OwnershipTransferred",
      "type": "event"
    },
    {
      "anonymous": false,
      "inputs": [
        {
          "indexed": false,
          "internalType": "address",
          "name": "account",
          "type": "address"
        }
      ],
      "name": "Paused",
      "type": "event"
    },
    {
      "anonymous": false,
      "inputs": [
        {
          "indexed": true,
          "internalType": "address",
          "name": "from",
          "type": "address"
        },
        {
          "indexed": true,
          "internalType": "address",
          "name": "to",
          "type": "address"
        },
        {
          "indexed": true,
          "internalType": "uint256",
          "name": "tokenId",
          "type": "uint256"
        }
      ],
      "name": "Transfer",
      "type": "event"
    },
    {
      "anonymous": false,
      "inputs": [
        {
          "indexed": false,
          "internalType": "address",
          "name": "account",
          "type": "address"
        }
      ],
      "name": "Unpaused",
      "type": "event"
    },
    {
      "inputs": [
        {
          "internalType": "uint256",
          "name": "",
          "type": "uint256"
        }
      ],
      "name": "achievementCreator",
      "outputs": [
        {
          "internalType": "address",
          "name": "",
          "type": "address"
        }
      ],
      "stateMutability": "view",
      "type": "function"
    },
    {
      "inputs": [
        {
          "internalType": "uint256",
          "name": "",
          "type": "uint256"
        }
      ],
      "name": "achievements",
      "outputs": [
        {
          "internalType": "string",
          "name": "name",
          "type": "string"
        },
        {
          "internalType": "string",
          "name": "description",
          "type": "string"
        },
        {
          "internalType": "enum SpellBlocAchievements.AchievementType",
          "name": "achievementType",
          "type": "uint8"
        },
        {
          "internalType": "enum SpellBlocAchievements.Rarity",
          "name": "rarity",
          "type": "uint8"
        },
        {
          "internalType": "uint256",
          "name": "requirement",
          "type": "uint256"
        },
        {
          "internalType": "bool",
          "name": "soulbound",
          "type": "bool"
        },
        {
          "internalType": "bool",
          "name": "purchasable",
          "type": "bool"
        },
        {
          "internalType": "uint256",
          "name": "price",
          "type": "uint256"
        },
        {
          "internalType": "uint256",
          "name": "totalMinted",
          "type": "uint256"
        },
        {
          "internalType": "uint256",
          "name": "maxSupply",
          "type": "uint256"
        },
        {
          "internalType": "bool",
          "name": "active",
          "type": "bool"
        }
      ],
      "stateMutability": "view",
      "type": "function"
    },
    {
      "inputs": [
        {
          "internalType": "address",
          "name": "to",
          "type": "address"
        },
        {
          "internalType": "uint256",
          "name": "tokenId",
          "type": "uint256"
        }
      ],
      "name": "approve",
      "outputs": [],
      "stateMutability": "nonpayable",
      "type": "function"
    },
    {
      "inputs": [
        {
          "internalType": "address",
          "name": "owner",
          "type": "address"
        }
      ],
      "name": "balanceOf",
      "outputs": [
        {
          "internalType": "uint256",
          "name": "",
          "type": "uint256"
        }
      ],
      "stateMutability": "view",
      "type": "function"
    },
    {
      "inputs": [
        {
          "internalType": "string",
          "name": "name",
          "type": "string"
        },
        {
          "internalType": "string",
          "name": "description",
          "type": "string"
        },
        {
          "internalType": "enum SpellBlocAchievements.AchievementType",
          "name": "achievementType",
          "type": "uint8"
        },
        {
          "internalType": "enum SpellBlocAchievements.Rarity",
          "name": "rarity",
          "type": "uint8"
        },
        {
          "internalType": "uint256",
          "name": "requirement",
          "type": "uint256"
        },
        {
          "internalType": "bool",
          "name": "soulbound",
          "type": "bool"
        },
        {
          "internalType": "bool",
          "name": "purchasable",
          "type": "bool"
        },
        {
          "internalType": "uint256",
          "name": "price",
          "type": "uint256"
        },
        {
          "internalType": "uint256",
          "name": "maxSupply",
          "type": "uint256"
        }
      ],
      "name": "createAchievement",
      "outputs": [],
      "stateMutability": "nonpayable",
      "type": "function"
    },
    {
      "inputs": [
        {
          "internalType": "uint256",
          "name": "achievementId",
          "type": "uint256"
        }
      ],
      "name": "getAchievement",
      "outputs": [
        {
          "components": [
            {
              "internalType": "string",
              "name": "name",
              "type": "string"
            },
            {
              "internalType": "string",
              "name": "description",
              "type": "string"
            },
            {
              "internalType": "enum SpellBlocAchievements.AchievementType",
              "name": "achievementType",
              "type": "uint8"
            },
            {
              "internalType": "enum SpellBlocAchievements.Rarity",
              "name": "rarity",
              "type": "uint8"
            },
            {
              "internalType": "uint256",
              "name": "requirement",
              "type": "uint256"
            },
            {
              "internalType": "bool",
              "name": "soulbound",
              "type": "bool"
            },
            {
              "internalType": "bool",
              "name": "purchasable",
              "type": "bool"
            },
            {
              "internalType": "uint256",
              "name": "price",
              "type": "uint256"
            },
            {
              "internalType": "uint256",
              "name": "totalMinted",
              "type": "uint256"
            },
            {
              "internalType": "uint256",
              "name": "maxSupply",
              "type": "uint256"
            },
            {
              "internalType": "bool",
              "name": "active",
              "type": "bool"
            }
          ],
          "internalType": "struct SpellBlocAchievements.Achievement",
          "name": "",
          "type": "tuple"
        }
      ],
      "stateMutability": "view",
      "type": "function"
    },
    {
      "inputs": [
        {
          "internalType": "uint256",
          "name": "tokenId",
          "type": "uint256"
        }
      ],
      "name": "getApproved",
      "outputs": [
        {
          "internalType": "address",
          "name": "",
          "type": "address"
        }
      ],
      "stateMutability": "view",
      "type": "function"
    },
    {
      "inputs": [],
      "name": "getStats",
      "outputs": [
        {
          "internalType": "uint256",
          "name": "",
          "type": "uint256"
        },
        {
          "internalType": "uint256",
          "name": "",
          "type": "uint256"
        },
        {
          "internalType": "uint256",
          "name": "",
          "type": "uint256"
        }
      ],
      "stateMutability": "view",
      "type": "function"
    },
    {
      "inputs": [
        {
          "internalType": "address",
          "name": "user",
          "type": "address"
        }
      ],
      "name": "getUserAchievements",
      "outputs": [
        {
          "internalType": "uint256[]",
          "name": "",
          "type": "uint256[]"
        }
      ],
      "stateMutability": "view",
      "type": "function"
    },
    {
      "inputs": [
        {
          "internalType": "address",
          "name": "",
          "type": "address"
        },
        {
          "internalType": "uint256",
          "name": "",
          "type": "uint256"
        }
      ],
      "name": "hasAchievement",
      "outputs": [
        {
          "internalType": "bool",
          "name": "",
          "type": "bool"
        }
      ],
      "stateMutability": "view",
      "type": "function"
    },
    {
      "inputs": [
        {
          "internalType": "address",
          "name": "owner",
          "type": "address"
        },
        {
          "internalType": "address",
          "name": "operator",
          "type": "address"
        }
      ],
      "name": "isApprovedForAll",
      "outputs": [
        {
          "internalType": "bool",
          "name": "",
          "type": "bool"
        }
      ],
      "stateMutability": "view",
      "type": "function"
    },
    {
      "inputs": [
        {
          "internalType": "address",
          "name": "to",
          "type": "address"
        },
        {
          "internalType": "uint256",
          "name": "achievementId",
          "type": "uint256"
        },
        {
          "internalType": "string",
          "name": "metadataUri",
          "type": "string"
        }
      ],
      "name": "mintAchievement",
      "outputs": [],
      "stateMutability": "nonpayable",
      "type": "function"
    },
    {
      "inputs": [],
      "name": "name",
      "outputs": [
        {
          "internalType": "string",
          "name": "",
          "type": "string"
        }
      ],
      "stateMutability": "view",
      "type": "function"
    },
    {
      "inputs": [],
      "name": "owner",
      "outputs": [
        {
          "internalType": "address",
          "name": "",
          "type": "address"
        }
      ],
      "stateMutability": "view",
      "type": "function"
    },
    {
      "inputs": [
        {
          "internalType": "uint256",
          "name": "tokenId",
          "type": "uint256"
        }
      ],
      "name": "ownerOf",
      "outputs": [
        {
          "internalType": "address",
          "name": "",
          "type": "address"
        }
      ],
      "stateMutability": "view",
      "type": "function"
    },
    {
      "inputs": [],
      "name": "pause",
      "outputs": [],
      "stateMutability": "nonpayable",
      "type": "function"
    },
    {
      "inputs": [],
      "name": "paused",
      "outputs": [
        {
          "internalType": "bool",
          "name": "",
          "type": "bool"
        }
      ],
      "stateMutability": "view",
      "type": "function"
    },
    {
      "inputs": [
        {
          "internalType": "uint256",
          "name": "achievementId",
          "type": "uint256"
        },
        {
          "internalType": "string",
          "name": "metadataUri",
          "type": "string"
        }
      ],
      "name": "purchaseAchievement",
      "outputs": [],
      "stateMutability": "payable",
      "type": "function"
    },
    {
      "inputs": [],
      "name": "renounceOwnership",
      "outputs": [],
      "stateMutability": "nonpayable",
      "type": "function"
    },
    {
      "inputs": [
        {
          "internalType": "address",
          "name": "from",
          "type": "address"
        },
        {
          "internalType": "address",
          "name": "to",
          "type": "address"
        },
        {
          "internalType": "uint256",
          "name": "tokenId",
          "type": "uint256"
        }
      ],
      "name": "safeTransferFrom",
      "outputs": [],
      "stateMutability": "nonpayable",
      "type": "function"
    },
    {
      "inputs": [
        {
          "internalType": "address",
          "name": "from",
          "type": "address"
        },
        {
          "internalType": "address",
          "name": "to",
          "type": "address"
        },
        {
          "internalType": "uint256",
          "name": "tokenId",
          "type": "uint256"
        },
        {
          "internalType": "bytes",
          "name": "data",
          "type": "bytes"
        }
      ],
      "name": "safeTransferFrom",
      "outputs": [],
      "stateMutability": "nonpayable",
      "type": "function"
    },
    {
      "inputs": [
        {
          "internalType": "address",
          "name": "operator",
          "type": "address"
        },
        {
          "internalType": "bool",
          "name": "approved",
          "type": "bool"
        }
      ],
      "name": "setApprovalForAll",
      "outputs": [],
      "stateMutability": "nonpayable",
      "type": "function"
    },
    {
      "inputs": [
        {
          "internalType": "bytes4",
          "name": "interfaceId",
          "type": "bytes4"
        }
      ],
      "name": "supportsInterface",
      "outputs": [
        {
          "internalType": "bool",
          "name": "",
          "type": "bool"
        }
      ],
      "stateMutability": "view",
      "type": "function"
    },
    {
      "inputs": [],
      "name": "symbol",
      "outputs": [
        {
          "internalType": "string",
          "name": "",
          "type": "string"
        }
      ],
      "stateMutability": "view",
      "type": "function"
    },
    {
      "inputs": [
        {
          "internalType": "uint256",
          "name": "achievementId",
          "type": "uint256"
        }
      ],
      "name": "toggleAchievementActive",
      "outputs": [],
      "stateMutability": "nonpayable",
      "type": "function"
    },
    {
      "inputs": [
        {
          "internalType": "uint256",
          "name": "tokenId",
          "type": "uint256"
        }
      ],
      "name": "tokenURI",
      "outputs": [
        {
          "internalType": "string",
          "name": "",
          "type": "string"
        }
      ],
      "stateMutability": "view",
      "type": "function"
    },
    {
      "inputs": [],
      "name": "totalAchievements",
      "outputs": [
        {
          "internalType": "uint256",
          "name": "",
          "type": "uint256"
        }
      ],
      "stateMutability": "view",
      "type": "function"
    },
    {
      "inputs": [],
      "name": "totalHolders",
      "outputs": [
        {
          "internalType": "uint256",
          "name": "",
          "type": "uint256"
        }
      ],
      "stateMutability": "view",
      "type": "function"
    },
    {
      "inputs": [
        {
          "internalType": "address",
          "name": "from",
          "type": "address"
        },
        {
          "internalType": "address",
          "name": "to",
          "type": "address"
        },
        {
          "internalType": "uint256",
          "name": "tokenId",
          "type": "uint256"
        }
      ],
      "name": "transferFrom",
      "outputs": [],
      "stateMutability": "nonpayable",
      "type": "function"
    },
    {
      "inputs": [
        {
          "internalType": "address",
          "name": "newOwner",
          "type": "address"
        }
      ],
      "name": "transferOwnership",
      "outputs": [],
      "stateMutability": "nonpayable",
      "type": "function"
    },
    {
      "inputs": [],
      "name": "unpause",
      "outputs": [],
      "stateMutability": "nonpayable",
      "type": "function"
    },
    {
      "inputs": [
        {
          "internalType": "uint256",
          "name": "achievementId",
          "type": "uint256"
        },
        {
          "internalType": "uint256",
          "name": "newPrice",
          "type": "uint256"
        }
      ],
      "name": "updateAchievementPrice",
      "outputs": [],
      "stateMutability": "nonpayable",
      "type": "function"
    },
    {
      "inputs": [
        {
          "internalType": "address",
          "name": "",
          "type": "address"
        }
      ],
      "name": "userAchievementCount",
      "outputs": [
        {
          "internalType": "uint256",
          "name": "",
          "type": "uint256"
        }
      ],
      "stateMutability": "view",
      "type": "function"
    },
    {
      "inputs": [
        {
          "internalType": "address",
          "name": "",
          "type": "address"
        },
        {
          "internalType": "uint256",
          "name": "",
          "type": "uint256"
        }
      ],
      "name": "userAchievements",
      "outputs": [
        {
          "internalType": "uint256",
          "name": "",
          "type": "uint256"
        }
      ],
      "stateMutability": "view",
      "type": "function"
    },
    {
      "inputs": [
        {
          "internalType": "address",
          "name": "user",
          "type": "address"
        },
        {
          "internalType": "uint256",
          "name": "achievementId",
          "type": "uint256"
        }
      ],
      "name": "userHasAchievement",
      "outputs": [
        {
          "internalType": "bool",
          "name": "",
          "type": "bool"
        }
      ],
      "stateMutability": "view",
      "type": "function"
    },
    {
      "inputs": [],
      "name": "withdrawFunds",
      "outputs": [],
      "stateMutability": "nonpayable",
      "type": "function"
    },
    {
      "stateMutability": "payable",
      "type": "receive"
    }
  ],
  "bytecode": "0x60806040523480156200001157600080fd5b506040518060400160405280601681526020017f5370656c6c426c6f6320416368696576656d656e7473000000000000000000008152506040518060400160405280600381526020016253424160e81b8152508160009081620000759190620006d9565b506001620000848282620006d9565b505050620000a16200009b620000be60201b60201c565b620000c2565b6007805460ff60a01b19169055620000b862000114565b62000879565b3390565b600780546001600160a01b038381166001600160a01b0319831681179093556040519116919082907f8be0079c531659141344cd1fd0a4f28419497f9722a3daafe3b4186f6b6457e090600090a35050565b6200018a6040518060400160405280600b81526020016a466972737420537465707360a81b8152506040518060400160405280601c81526020017f4c6561726e656420796f757220666972737420313020776f7264732100000000815250600080600a600160008060006200044960201b60201c565b620001de6040518060400160405280600d81526020016c2bb7b9321022bc383637b932b960991b8152506040518060600160405280602e815260200162003aab602e91396000600160328183808062000449565b620002376040518060400160405280601181526020017029b832b63634b7339021b430b6b834b7b760791b81525060405180606001604052806024815260200162003a6060249139600060026064600183808062000449565b620002896040518060400160405280600b81526020016a29b832b2b2102232b6b7b760a91b81525060405180606001604052806027815260200162003a0a60279139600180600a816000808062000449565b620002de6040518060400160405280600d81526020016c506572666563742053636f726560981b8152506040518060600160405280602f815260200162003a31602f9139600160026014826000808062000449565b620003336040518060400160405280600d81526020016c2230b4b63c902632b0b93732b960991b81525060405180606001604052806027815260200162003a8460279139600260006007600182808062000449565b6200038d604051806040016040528060118152602001702232b234b1b0ba34b7b71026b0b9ba32b960791b815250604051806060016040528060248152602001620039e66024913960026003601e60016000808062000449565b620003ea6040518060400160405280600b81526020016a23b7b63232b71029ba30b960a91b815250604051806060016040528060238152602001620039c3602391396004600260008060016706f05b59d3b200006103e862000449565b620004476040518060400160405280600d81526020016c2234b0b6b7b7321021b937bbb760991b81525060405180606001604052806023815260200162003ad9602391396004806000806001671bc16d674ec80000606462000449565b565b6040518061016001604052808a8152602001898152602001886004811115620004765762000476620007a5565b8152602001876004811115620004905762000490620007a5565b815260200186815260200185151581526020018415158152602001838152602001600081526020018281526020016001151581525060096000600d5481526020019081526020016000206000820151816000019081620004f19190620006d9565b5060208201516001820190620005089082620006d9565b50604082015160028201805460ff191660018360048111156200052f576200052f620007a5565b0217905550606082015160028201805461ff0019166101008360048111156200055c576200055c620007a5565b02179055506080820151600382015560a082015160048201805460c085015161ffff1990911692151561ff00191692909217610100921515830217905560e0830151600583015582015160068201556101208201516007820155610140909101516008909101805460ff1916911515919091179055600d546040517fbb6dbd26f57c6bbe6d7cdcfc6ad639a5fee272251952e0edf1210656c6540160906200060a908c908b908b90620007dd565b60405180910390a2600d8054906000620006248362000851565b9190505550505050505050505050565b634e487b7160e01b600052604160045260246000fd5b600181811c908216806200065f57607f821691505b6020821081036200068057634e487b7160e01b600052602260045260246000fd5b50919050565b601f821115620006d457600081815260208120601f850160051c81016020861015620006af5750805b601f850160051c820191505b81811015620006d057828155600101620006bb565b5050505b505050565b81516001600160401b03811115620006f557620006f562000634565b6200070d816200070684546200064a565b8462000686565b602080601f8311600181146200074557600084156200072c5750858301515b600019600386901b1c1916600185901b178555620006d0565b600085815260208120601f198616915b82811015620007765788860151825594840194600190910190840162000755565b5085821015620007955787850151600019600388901b60f8161c191681555b5050505050600190811b01905550565b634e487b7160e01b600052602160045260246000fd5b60058110620007da57634e487b7160e01b600052602160045260246000fd5b50565b606081526000845180606084015260005b818110156200080d5760208188018101516080868401015201620007ee565b506000608082850101526080601f19601f8301168401019150506200083284620007bb565b8360208301526200084383620007bb565b826040830152949350505050565b6000600182016200087257634e487b7160e01b600052601160045260246000fd5b5060010190565b61313a80620008896000396000f3fe6080604052600436106102135760003560e01c80638da5cb5b11610118578063be5dc656116100a0578063f09153c41161006f578063f09153c414610697578063f2ccc543146106c4578063f2fde38b146106f1578063f40a00d514610711578063ffd5c07c1461073157600080fd5b8063be5dc656146105de578063c59d4847146105fe578063c87b56dd1461062e578063e985e9c51461064e57600080fd5b8063a61f9837116100e7578063a61f983714610517578063ab5eba161461052d578063b2878dcb14610568578063b3eae84514610588578063b88d4fde146105be57600080fd5b80638da5cb5b146104b15780639372e0a5146104cf57806395d89b41146104e2578063a22cb465146104f757600080fd5b80633f4ba83a1161019b5780636352211e1161016a5780636352211e1461040157806370a0823114610421578063715018a6146104415780638456cb59146104565780638cbfdf6b1461046b57600080fd5b80633f4ba83a1461039757806342842e0e146103ac57806353d74fdf146103cc5780635c975abb146103e257600080fd5b80631fe73df7116101e25780631fe73df7146102d057806323b872dd1461030b57806324548c601461032b57806324600fc31461034b57806327aed72e1461036057600080fd5b806301ffc9a71461021f57806306fdde0314610254578063081812fc14610276578063095ea7b3146102ae57600080fd5b3661021a57005b600080fd5b34801561022b57600080fd5b5061023f61023a3660046126d6565b610751565b60405190151581526020015b60405180910390f35b34801561026057600080fd5b50610269610762565b60405161024b9190612743565b34801561028257600080fd5b50610296610291366004612756565b6107f4565b6040516001600160a01b03909116815260200161024b565b3480156102ba57600080fd5b506102ce6102c936600461278b565b61081b565b005b3480156102dc57600080fd5b506102fd6102eb3660046127b5565b600f6020526000908152604090205481565b60405190815260200161024b565b34801561031757600080fd5b506102ce6103263660046127d0565b610935565b34801561033757600080fd5b506102fd61034636600461278b565b610966565b34801561035757600080fd5b506102ce610997565b34801561036c57600080fd5b5061038061037b366004612756565b610a22565b60405161024b9b9a9998979695949392919061284d565b3480156103a357600080fd5b506102ce610b8e565b3480156103b857600080fd5b506102ce6103c73660046127d0565b610ba0565b3480156103d857600080fd5b506102fd600e5481565b3480156103ee57600080fd5b50600754600160a01b900460ff1661023f565b34801561040d57600080fd5b5061029661041c366004612756565b610bbb565b34801561042d57600080fd5b506102fd61043c3660046127b5565b610c1b565b34801561044d57600080fd5b506102ce610ca1565b34801561046257600080fd5b506102ce610cb3565b34801561047757600080fd5b5061023f61048636600461278b565b6001600160a01b03919091166000908152600b60209081526040808320938352929052205460ff1690565b3480156104bd57600080fd5b506007546001600160a01b0316610296565b6102ce6104dd366004612980565b610cc3565b3480156104ee57600080fd5b50610269611050565b34801561050357600080fd5b506102ce6105123660046129d7565b61105f565b34801561052357600080fd5b506102fd600d5481565b34801561053957600080fd5b5061023f61054836600461278b565b600b60209081526000928352604080842090915290825290205460ff1681565b34801561057457600080fd5b506102ce610583366004612a0a565b61106a565b34801561059457600080fd5b506102966105a3366004612756565b600c602052600090815260409020546001600160a01b031681565b3480156105ca57600080fd5b506102ce6105d9366004612a2c565b6110a8565b3480156105ea57600080fd5b506102ce6105f9366004612aa8565b6110da565b34801561060a57600080fd5b5061061361141c565b6040805193845260208401929092529082015260600161024b565b34801561063a57600080fd5b50610269610649366004612756565b61143b565b34801561065a57600080fd5b5061023f610669366004612aff565b6001600160a01b03918216600090815260056020908152604080832093909416825291909152205460ff1690565b3480156106a357600080fd5b506106b76106b23660046127b5565b611446565b60405161024b9190612b29565b3480156106d057600080fd5b506106e46106df366004612756565b6114b2565b60405161024b9190612b6d565b3480156106fd57600080fd5b506102ce61070c3660046127b5565b61173a565b34801561071d57600080fd5b506102ce61072c366004612756565b6117b3565b34801561073d57600080fd5b506102ce61074c366004612c48565b6117ff565b600061075c82611823565b92915050565b60606000805461077190612d10565b80601f016020809104026020016040519081016040528092919081815260200182805461079d90612d10565b80156107ea5780601f106107bf576101008083540402835291602001916107ea565b820191906000526020600020905b8154815290600101906020018083116107cd57829003601f168201915b5050505050905090565b60006107ff82611848565b506000908152600460205260409020546001600160a01b031690565b600061082682610bbb565b9050806001600160a01b0316836001600160a01b0316036108985760405162461bcd60e51b815260206004820152602160248201527f4552433732313a20617070726f76616c20746f2063757272656e74206f776e656044820152603960f91b60648201526084015b60405180910390fd5b336001600160a01b03821614806108b457506108b48133610669565b6109265760405162461bcd60e51b815260206004820152603d60248201527f4552433732313a20617070726f76652063616c6c6572206973206e6f7420746f60448201527f6b656e206f776e6572206f7220617070726f76656420666f7220616c6c000000606482015260840161088f565b61093083836118a7565b505050565b61093f3382611915565b61095b5760405162461bcd60e51b815260040161088f90612d4a565b610930838383611994565b600a602052816000526040600020818154811061098257600080fd5b90600052602060002001600091509150505481565b61099f611b05565b47806109e45760405162461bcd60e51b81526020600482015260146024820152734e6f2066756e647320746f20776974686472617760601b604482015260640161088f565b6007546040516001600160a01b039091169082156108fc029083906000818181858888f19350505050158015610a1e573d6000803e3d6000fd5b5050565b600960205260009081526040902080548190610a3d90612d10565b80601f0160208091040260200160405190810160405280929190818152602001828054610a6990612d10565b8015610ab65780601f10610a8b57610100808354040283529160200191610ab6565b820191906000526020600020905b815481529060010190602001808311610a9957829003601f168201915b505050505090806001018054610acb90612d10565b80601f0160208091040260200160405190810160405280929190818152602001828054610af790612d10565b8015610b445780601f10610b1957610100808354040283529160200191610b44565b820191906000526020600020905b815481529060010190602001808311610b2757829003601f168201915b50505050600283015460038401546004850154600586015460068701546007880154600890980154969760ff8087169861010097889004821698509596818616969504811694168b565b610b96611b05565b610b9e611b5f565b565b610930838383604051806020016040528060008152506110a8565b6000818152600260205260408120546001600160a01b03168061075c5760405162461bcd60e51b8152602060048201526018602482015277115490cdcc8c4e881a5b9d985b1a59081d1bdad95b88125160421b604482015260640161088f565b60006001600160a01b038216610c855760405162461bcd60e51b815260206004820152602960248201527f4552433732313a2061646472657373207a65726f206973206e6f7420612076616044820152683634b21037bbb732b960b91b606482015260840161088f565b506001600160a01b031660009081526003602052604090205490565b610ca9611b05565b610b9e6000611bb4565b610cbb611b05565b610b9e611c06565b610ccb611c49565b600d548210610cec5760405162461bcd60e51b815260040161088f90612d97565b6000828152600960205260409020600881015460ff16610d4a5760405162461bcd60e51b8152602060048201526019602482015278416368696576656d656e74206973206e6f742061637469766560381b604482015260640161088f565b6004810154610100900460ff16610da35760405162461bcd60e51b815260206004820152601e60248201527f416368696576656d656e74206973206e6f74207075726368617361626c650000604482015260640161088f565b8060050154341015610dee5760405162461bcd60e51b8152602060048201526014602482015273125b9cdd59999a58da595b9d081c185e5b595b9d60621b604482015260640161088f565b336000908152600b6020908152604080832086845290915290205460ff1615610e595760405162461bcd60e51b815260206004820152601c60248201527f416c7265616479206f776e207468697320616368696576656d656e7400000000604482015260640161088f565b600781015415610eaf578060070154816006015410610eaf5760405162461bcd60e51b815260206004820152601260248201527113585e081cdd5c1c1b1e481c995858da195960721b604482015260640161088f565b6000610eba60085490565b9050610eca600880546001019055565b610ed43382611c96565b610ede8184611cb0565b336000818152600a6020908152604080832080546001818101835591855283852001869055938352600b82528083208884529091528120805460ff191690921790915560068301805491610f3183612de4565b9091555050336000908152600f60205260408120549003610f6257600e8054906000610f5c83612de4565b91905055505b336000908152600f60205260408120805491610f7d83612de4565b9091555050604051348152849033907f61be26b85c552570d3d3dbaa9543ccda38650e4b6e2c5c4799266d80b8ec04239060200160405180910390a38381336001600160a01b03167fc0736c6df9369661e1c71667b4715c8019f2718428af392af61b227972d143a585600001604051610ff79190612dfd565b60405180910390a4816005015434111561104a57600582015433906108fc906110209034612e88565b6040518115909202916000818181858888f19350505050158015611048573d6000803e3d6000fd5b505b50505050565b60606001805461077190612d10565b610a1e338383611d7b565b611072611b05565b600d5482106110935760405162461bcd60e51b815260040161088f90612d97565b60009182526009602052604090912060050155565b6110b23383611915565b6110ce5760405162461bcd60e51b815260040161088f90612d4a565b61104a84848484611e49565b6110e2611b05565b6110ea611c49565b600d54821061110b5760405162461bcd60e51b815260040161088f90612d97565b6001600160a01b0383166000908152600b6020908152604080832085845290915290205460ff16156111895760405162461bcd60e51b815260206004820152602160248201527f5573657220616c726561647920686173207468697320616368696576656d656e6044820152601d60fa1b606482015260840161088f565b6000828152600960205260409020600881015460ff166111e75760405162461bcd60e51b8152602060048201526019602482015278416368696576656d656e74206973206e6f742061637469766560381b604482015260640161088f565b6004810154610100900460ff16156112575760405162461bcd60e51b815260206004820152602d60248201527f557365207075726368617365416368696576656d656e7420666f72207075726360448201526c68617361626c65206974656d7360981b606482015260840161088f565b6007810154156112ad5780600701548160060154106112ad5760405162461bcd60e51b815260206004820152601260248201527113585e081cdd5c1c1b1e481c995858da195960721b604482015260640161088f565b60006112b860085490565b90506112c8600880546001019055565b6112d28582611c96565b6112dc8184611cb0565b6001600160a01b0385166000818152600a6020908152604080832080546001818101835591855283852001869055938352600b82528083208884529091528120805460ff19169092179091556006830180549161133883612de4565b91905055508160060154600103611371576000848152600c6020526040902080546001600160a01b0319166001600160a01b0387161790555b6001600160a01b0385166000908152600f602052604081205490036113a657600e80549060006113a083612de4565b91905055505b6001600160a01b0385166000908152600f602052604081208054916113ca83612de4565b91905055508381866001600160a01b03167fc0736c6df9369661e1c71667b4715c8019f2718428af392af61b227972d143a58560000160405161140d9190612dfd565b60405180910390a45050505050565b6000806000600d54600e5461143060085490565b925092509250909192565b606061075c82611e7c565b6001600160a01b0381166000908152600a60209081526040918290208054835181840281018401909452808452606093928301828280156114a657602002820191906000526020600020905b815481526020019060010190808311611492575b50505050509050919050565b6115136040805161016081018252606080825260208201529081016000815260200160008152602001600081526020016000151581526020016000151581526020016000815260200160008152602001600081526020016000151581525090565b600d5482106115345760405162461bcd60e51b815260040161088f90612d97565b600082815260096020526040908190208151610160810190925280548290829061155d90612d10565b80601f016020809104026020016040519081016040528092919081815260200182805461158990612d10565b80156115d65780601f106115ab576101008083540402835291602001916115d6565b820191906000526020600020905b8154815290600101906020018083116115b957829003601f168201915b505050505081526020016001820180546115ef90612d10565b80601f016020809104026020016040519081016040528092919081815260200182805461161b90612d10565b80156116685780601f1061163d57610100808354040283529160200191611668565b820191906000526020600020905b81548152906001019060200180831161164b57829003601f168201915b5050509183525050600282015460209091019060ff16600481111561168f5761168f61280c565b60048111156116a0576116a061280c565b81526020016002820160019054906101000a900460ff1660048111156116c8576116c861280c565b60048111156116d9576116d961280c565b815260038201546020820152600482015460ff8082161515604084015261010090910481161515606083015260058301546080830152600683015460a0830152600783015460c0830152600890920154909116151560e09091015292915050565b611742611b05565b6001600160a01b0381166117a75760405162461bcd60e51b815260206004820152602660248201527f4f776e61626c653a206e6577206f776e657220697320746865207a65726f206160448201526564647265737360d01b606482015260840161088f565b6117b081611bb4565b50565b6117bb611b05565b600d5481106117dc5760405162461bcd60e51b815260040161088f90612d97565b6000908152600960205260409020600801805460ff19811660ff90911615179055565b611807611b05565b611818898989898989898989611f84565b505050505050505050565b60006001600160e01b03198216632483248360e11b148061075c575061075c8261215b565b6000818152600260205260409020546001600160a01b03166117b05760405162461bcd60e51b8152602060048201526018602482015277115490cdcc8c4e881a5b9d985b1a59081d1bdad95b88125160421b604482015260640161088f565b600081815260046020526040902080546001600160a01b0319166001600160a01b03841690811790915581906118dc82610bbb565b6001600160a01b03167f8c5be1e5ebec7d5bd14f71427d1e84f3dd0314c0f7b2291e5b200ac8c7c3b92560405160405180910390a45050565b60008061192183610bbb565b9050806001600160a01b0316846001600160a01b0316148061196857506001600160a01b0380821660009081526005602090815260408083209388168352929052205460ff165b8061198c5750836001600160a01b0316611981846107f4565b6001600160a01b0316145b949350505050565b826001600160a01b03166119a782610bbb565b6001600160a01b0316146119cd5760405162461bcd60e51b815260040161088f90612e9b565b6001600160a01b038216611a2f5760405162461bcd60e51b8152602060048201526024808201527f4552433732313a207472616e7366657220746f20746865207a65726f206164646044820152637265737360e01b606482015260840161088f565b611a3c83838360016121ab565b826001600160a01b0316611a4f82610bbb565b6001600160a01b031614611a755760405162461bcd60e51b815260040161088f90612e9b565b600081815260046020908152604080832080546001600160a01b03199081169091556001600160a01b0387811680865260038552838620805460001901905590871680865283862080546001019055868652600290945282852080549092168417909155905184937fddf252ad1be2c89b69c2b068fc378daa952ba7f163c4a11628f55a4df523b3ef91a4505050565b6007546001600160a01b03163314610b9e5760405162461bcd60e51b815260206004820181905260248201527f4f776e61626c653a2063616c6c6572206973206e6f7420746865206f776e6572604482015260640161088f565b611b676121c4565b6007805460ff60a01b191690557f5db9ee0a495bf2e6ff9c91a7834c1ba4fdd244a5e8aa4e537bd38aeae4b073aa335b6040516001600160a01b03909116815260200160405180910390a1565b600780546001600160a01b038381166001600160a01b0319831681179093556040519116919082907f8be0079c531659141344cd1fd0a4f28419497f9722a3daafe3b4186f6b6457e090600090a35050565b611c0e611c49565b6007805460ff60a01b1916600160a01b1790557f62e78cea01bee320cd4e420270b5ea74000d11b0c9f74754ebdbfc544b05a258611b973390565b600754600160a01b900460ff1615610b9e5760405162461bcd60e51b815260206004820152601060248201526f14185d5cd8589b194e881c185d5cd95960821b604482015260640161088f565b610a1e828260405180602001604052806000815250612214565b6000828152600260205260409020546001600160a01b0316611d2b5760405162461bcd60e51b815260206004820152602e60248201527f45524337323155524953746f726167653a2055524920736574206f66206e6f6e60448201526d32bc34b9ba32b73a103a37b5b2b760911b606482015260840161088f565b6000828152600660205260409020611d438282612f2e565b506040518281527ff8e1a15aba9398e019f0b49df1a4fde98ee17ae345cb5f6b5e2c27f5033e8ce79060200160405180910390a15050565b816001600160a01b0316836001600160a01b031603611ddc5760405162461bcd60e51b815260206004820152601960248201527f4552433732313a20617070726f766520746f2063616c6c657200000000000000604482015260640161088f565b6001600160a01b03838116600081815260056020908152604080832094871680845294825291829020805460ff191686151590811790915591519182527f17307eab39ab6107e8899845ad3d59bd9653f200f220920489ca2b5937696c31910160405180910390a3505050565b611e54848484611994565b611e6084848484612247565b61104a5760405162461bcd60e51b815260040161088f90612fee565b6060611e8782611848565b60008281526006602052604081208054611ea090612d10565b80601f0160208091040260200160405190810160405280929190818152602001828054611ecc90612d10565b8015611f195780601f10611eee57610100808354040283529160200191611f19565b820191906000526020600020905b815481529060010190602001808311611efc57829003601f168201915b505050505090506000611f3760408051602081019091526000815290565b90508051600003611f49575092915050565b815115611f7b578082604051602001611f63929190613040565b60405160208183030381529060405292505050919050565b61198c84612348565b6040518061016001604052808a8152602001898152602001886004811115611fae57611fae61280c565b8152602001876004811115611fc557611fc561280c565b815260200186815260200185151581526020018415158152602001838152602001600081526020018281526020016001151581525060096000600d54815260200190815260200160002060008201518160000190816120249190612f2e565b50602082015160018201906120399082612f2e565b50604082015160028201805460ff1916600183600481111561205d5761205d61280c565b0217905550606082015160028201805461ff0019166101008360048111156120875761208761280c565b02179055506080820151600382015560a082015160048201805460c085015161ffff1990911692151561ff00191692909217610100921515830217905560e0830151600583015582015160068201556101208201516007820155610140909101516008909101805460ff1916911515919091179055600d546040517fbb6dbd26f57c6bbe6d7cdcfc6ad639a5fee272251952e0edf1210656c654016090612133908c908b908b9061306f565b60405180910390a2600d805490600061214b83612de4565b9190505550505050505050505050565b60006001600160e01b031982166380ac58cd60e01b148061218c57506001600160e01b03198216635b5e139f60e01b145b8061075c57506301ffc9a760e01b6001600160e01b031983161461075c565b6001600160a01b03841615801590611048575050505050565b600754600160a01b900460ff16610b9e5760405162461bcd60e51b815260206004820152601460248201527314185d5cd8589b194e881b9bdd081c185d5cd95960621b604482015260640161088f565b61221e83836123bc565b61222b6000848484612247565b6109305760405162461bcd60e51b815260040161088f90612fee565b60006001600160a01b0384163b1561233d57604051630a85bd0160e11b81526001600160a01b0385169063150b7a029061228b9033908990889088906004016130aa565b6020604051808303816000875af19250505080156122c6575060408051601f3d908101601f191682019092526122c3918101906130e7565b60015b612323573d8080156122f4576040519150601f19603f3d011682016040523d82523d6000602084013e6122f9565b606091505b50805160000361231b5760405162461bcd60e51b815260040161088f90612fee565b805181602001fd5b6001600160e01b031916630a85bd0160e11b14905061198c565b506001949350505050565b606061235382611848565b600061236a60408051602081019091526000815290565b9050600081511161238a57604051806020016040528060008152506123b5565b8061239484612555565b6040516020016123a5929190613040565b6040516020818303038152906040525b9392505050565b6001600160a01b0382166124125760405162461bcd60e51b815260206004820181905260248201527f4552433732313a206d696e7420746f20746865207a65726f2061646472657373604482015260640161088f565b6000818152600260205260409020546001600160a01b0316156124775760405162461bcd60e51b815260206004820152601c60248201527f4552433732313a20746f6b656e20616c7265616479206d696e74656400000000604482015260640161088f565b6124856000838360016121ab565b6000818152600260205260409020546001600160a01b0316156124ea5760405162461bcd60e51b815260206004820152601c60248201527f4552433732313a20746f6b656e20616c7265616479206d696e74656400000000604482015260640161088f565b6001600160a01b038216600081815260036020908152604080832080546001019055848352600290915280822080546001600160a01b0319168417905551839291907fddf252ad1be2c89b69c2b068fc378daa952ba7f163c4a11628f55a4df523b3ef908290a45050565b60606000612562836125e8565b600101905060008167ffffffffffffffff811115612582576125826128d4565b6040519080825280601f01601f1916602001820160405280156125ac576020820181803683370190505b5090508181016020015b600019016f181899199a1a9b1b9c1cb0b131b232b360811b600a86061a8153600a85049450846125b657509392505050565b60008072184f03e93ff9f4daa797ed6e38ed64bf6a1f0160401b83106126275772184f03e93ff9f4daa797ed6e38ed64bf6a1f0160401b830492506040015b6d04ee2d6d415b85acef81000000008310612653576d04ee2d6d415b85acef8100000000830492506020015b662386f26fc10000831061267157662386f26fc10000830492506010015b6305f5e1008310612689576305f5e100830492506008015b612710831061269d57612710830492506004015b606483106126af576064830492506002015b600a831061075c5760010192915050565b6001600160e01b0319811681146117b057600080fd5b6000602082840312156126e857600080fd5b81356123b5816126c0565b60005b8381101561270e5781810151838201526020016126f6565b50506000910152565b6000815180845261272f8160208601602086016126f3565b601f01601f19169290920160200192915050565b6020815260006123b56020830184612717565b60006020828403121561276857600080fd5b5035919050565b80356001600160a01b038116811461278657600080fd5b919050565b6000806040838503121561279e57600080fd5b6127a78361276f565b946020939093013593505050565b6000602082840312156127c757600080fd5b6123b58261276f565b6000806000606084860312156127e557600080fd5b6127ee8461276f565b92506127fc6020850161276f565b9150604084013590509250925092565b634e487b7160e01b600052602160045260246000fd5b600581106117b057634e487b7160e01b600052602160045260246000fd5b61284981612822565b9052565b60006101608083526128618184018f612717565b90508281036020840152612875818e612717565b9150506128818b612822565b8a60408301526128908a612822565b6060820199909952608081019790975294151560a087015292151560c086015260e08501919091526101008401526101208301521515610140909101529392505050565b634e487b7160e01b600052604160045260246000fd5b600067ffffffffffffffff80841115612905576129056128d4565b604051601f8501601f19908116603f0116810190828211818310171561292d5761292d6128d4565b8160405280935085815286868601111561294657600080fd5b858560208301376000602087830101525050509392505050565b600082601f83011261297157600080fd5b6123b5838335602085016128ea565b6000806040838503121561299357600080fd5b82359150602083013567ffffffffffffffff8111156129b157600080fd5b6129bd85828601612960565b9150509250929050565b8035801515811461278657600080fd5b600080604083850312156129ea57600080fd5b6129f38361276f565b9150612a01602084016129c7565b90509250929050565b60008060408385031215612a1d57600080fd5b50508035926020909101359150565b60008060008060808587031215612a4257600080fd5b612a4b8561276f565b9350612a596020860161276f565b925060408501359150606085013567ffffffffffffffff811115612a7c57600080fd5b8501601f81018713612a8d57600080fd5b612a9c878235602084016128ea565b91505092959194509250565b600080600060608486031215612abd57600080fd5b612ac68461276f565b925060208401359150604084013567ffffffffffffffff811115612ae957600080fd5b612af586828701612960565b9150509250925092565b60008060408385031215612b1257600080fd5b612b1b8361276f565b9150612a016020840161276f565b6020808252825182820181905260009190848201906040850190845b81811015612b6157835183529284019291840191600101612b45565b50909695505050505050565b6020815260008251610160806020850152612b8c610180850183612717565b91506020850151601f19858403016040860152612ba98382612717565b9250506040850151612bbe6060860182612840565b506060850151612bd16080860182612840565b50608085015160a085015260a0850151612bef60c086018215159052565b5060c085015180151560e08601525060e0850151610100858101919091528501516101208086019190915285015161014080860191909152850151801515828601525090949350505050565b600581106117b057600080fd5b60008060008060008060008060006101208a8c031215612c6757600080fd5b893567ffffffffffffffff80821115612c7f57600080fd5b612c8b8d838e01612960565b9a5060208c0135915080821115612ca157600080fd5b50612cae8c828d01612960565b98505060408a0135612cbf81612c3b565b965060608a0135612ccf81612c3b565b955060808a01359450612ce460a08b016129c7565b9350612cf260c08b016129c7565b925060e08a013591506101008a013590509295985092959850929598565b600181811c90821680612d2457607f821691505b602082108103612d4457634e487b7160e01b600052602260045260246000fd5b50919050565b6020808252602d908201527f4552433732313a2063616c6c6572206973206e6f7420746f6b656e206f776e6560408201526c1c881bdc88185c1c1c9bdd9959609a1b606082015260800190565b6020808252601a908201527f416368696576656d656e7420646f6573206e6f74206578697374000000000000604082015260600190565b634e487b7160e01b600052601160045260246000fd5b600060018201612df657612df6612dce565b5060010190565b6000602080835260008454612e1181612d10565b80848701526040600180841660008114612e325760018114612e4c57612e7a565b60ff1985168984015283151560051b890183019550612e7a565b896000528660002060005b85811015612e725781548b8201860152908301908801612e57565b8a0184019650505b509398975050505050505050565b8181038181111561075c5761075c612dce565b60208082526025908201527f4552433732313a207472616e736665722066726f6d20696e636f72726563742060408201526437bbb732b960d91b606082015260800190565b601f82111561093057600081815260208120601f850160051c81016020861015612f075750805b601f850160051c820191505b81811015612f2657828155600101612f13565b505050505050565b815167ffffffffffffffff811115612f4857612f486128d4565b612f5c81612f568454612d10565b84612ee0565b602080601f831160018114612f915760008415612f795750858301515b600019600386901b1c1916600185901b178555612f26565b600085815260208120601f198616915b82811015612fc057888601518255948401946001909101908401612fa1565b5085821015612fde5787850151600019600388901b60f8161c191681555b5050505050600190811b01905550565b60208082526032908201527f4552433732313a207472616e7366657220746f206e6f6e20455243373231526560408201527131b2b4bb32b91034b6b83632b6b2b73a32b960711b606082015260800190565b600083516130528184602088016126f3565b8351908301906130668183602088016126f3565b01949350505050565b6060815260006130826060830186612717565b905061308d84612822565b83602083015261309c83612822565b826040830152949350505050565b6001600160a01b03858116825284166020820152604081018390526080606082018190526000906130dd90830184612717565b9695505050505050565b6000602082840312156130f957600080fd5b81516123b5816126c056fea26469706673582212200e99a2e024e56aeffb8110728b8e36ea2156470058d00187b7f57fa7dad6aba764736f6c6343000813003341207370656369616c20676f6c64656e20616368696576656d656e74206261646765214d61696e7461696e656420612033302d646179206c6561726e696e672073747265616b21436f6d706c6574656420313020776f72647320696e20756e646572203330207365636f6e64732141636869657665642031303025206163637572616379206f6e20323020636f6e736563757469766520776f72647321436f6e7175657265642031303020776f726473207769746820657863656c6c656e636521507261637469636564207370656c6c696e6720666f722037206461797320696e206120726f77214d6173746572656420353020776f726473206163726f737320646966666572656e742063617465676f726965732154686520756c74696d617465205370656c6c426c6f6320616368696576656d656e7421",
  "linkReferences": {},
  "deployedLinkReferences": {}
}