{
  "_format": "hh-sol-artifact-1",
  "contractName": "SpellBlocPayments",
  "sourceName": "contracts/SpellBlocPayments.sol",
  "abi": [
    {
      "inputs": [],
      "stateMutability": "nonpayable",
      "type": "constructor"
    },
    {
      "anonymous": false,
      "inputs": [
        {
          "indexed": true,
          "internalType": "address",
          "name": "user",
          "type": "address"
        },
        {
          "indexed": false,
          "internalType": "uint256",
          "name": "achievementId",
          "type": "uint256"
        },
        {
          "indexed": false,
          "internalType": "uint256",
          "name": "amount",
          "type": "uint256"
        }
      ],
      "name": "AchievementPurchased",
      "type": "event"
    },
    {
      "anonymous": false,
      "inputs": [
        {
          "indexed": true,
          "internalType": "address",
          "name": "owner",
          "type": "address"
        },
        {
          "indexed": false,
          "internalType": "uint256",
          "name": "amount",
          "type": "uint256"
        }
      ],
      "name": "FundsWithdrawn",
      "type": "event"
    },
    {
      "anonymous": false,
      "inputs": [
        {
          "indexed": true,
          "internalType": "address",
          "name": "previousOwner",
          "type": "address"
        },
        {
          "indexed": true,
          "internalType": "address",
          "name": "newOwner",
          "type": "address"
        }
      ],
      "name": "OwnershipTransferred",
      "type": "event"
    },
    {
      "anonymous": false,
      "inputs": [
        {
          "indexed": false,
          "internalType": "address",
          "name": "account",
          "type": "address"
        }
      ],
      "name": "Paused",
      "type": "event"
    },
    {
      "anonymous": false,
      "inputs": [
        {
          "indexed": false,
          "internalType": "enum SpellBlocPayments.PlanType",
          "name": "planType",
          "type": "uint8"
        },
        {
          "indexed": false,
          "internalType": "uint256",
          "name": "oldPrice",
          "type": "uint256"
        },
        {
          "indexed": false,
          "internalType": "uint256",
          "name": "newPrice",
          "type": "uint256"
        }
      ],
      "name": "PriceUpdated",
      "type": "event"
    },
    {
      "anonymous": false,
      "inputs": [
        {
          "indexed": true,
          "internalType": "address",
          "name": "user",
          "type": "address"
        },
        {
          "indexed": false,
          "internalType": "enum SpellBlocPayments.PlanType",
          "name": "planType",
          "type": "uint8"
        },
        {
          "indexed": false,
          "internalType": "uint256",
          "name": "duration",
          "type": "uint256"
        },
        {
          "indexed": false,
          "internalType": "uint256",
          "name": "amount",
          "type": "uint256"
        }
      ],
      "name": "SubscriptionPurchased",
      "type": "event"
    },
    {
      "anonymous": false,
      "inputs": [
        {
          "indexed": true,
          "internalType": "address",
          "name": "user",
          "type": "address"
        },
        {
          "indexed": false,
          "internalType": "uint256",
          "name": "newEndTime",
          "type": "uint256"
        },
        {
          "indexed": false,
          "internalType": "uint256",
          "name": "amount",
          "type": "uint256"
        }
      ],
      "name": "SubscriptionRenewed",
      "type": "event"
    },
    {
      "anonymous": false,
      "inputs": [
        {
          "indexed": false,
          "internalType": "address",
          "name": "account",
          "type": "address"
        }
      ],
      "name": "Unpaused",
      "type": "event"
    },
    {
      "inputs": [
        {
          "internalType": "uint256",
          "name": "",
          "type": "uint256"
        }
      ],
      "name": "achievementPrices",
      "outputs": [
        {
          "internalType": "uint256",
          "name": "",
          "type": "uint256"
        }
      ],
      "stateMutability": "view",
      "type": "function"
    },
    {
      "inputs": [
        {
          "internalType": "address",
          "name": "user",
          "type": "address"
        }
      ],
      "name": "cancelSubscription",
      "outputs": [],
      "stateMutability": "nonpayable",
      "type": "function"
    },
    {
      "inputs": [],
      "name": "emergencyWithdraw",
      "outputs": [],
      "stateMutability": "nonpayable",
      "type": "function"
    },
    {
      "inputs": [],
      "name": "getContractBalance",
      "outputs": [
        {
          "internalType": "uint256",
          "name": "",
          "type": "uint256"
        }
      ],
      "stateMutability": "view",
      "type": "function"
    },
    {
      "inputs": [],
      "name": "getStats",
      "outputs": [
        {
          "internalType": "uint256",
          "name": "",
          "type": "uint256"
        },
        {
          "internalType": "uint256",
          "name": "",
          "type": "uint256"
        },
        {
          "internalType": "uint256",
          "name": "",
          "type": "uint256"
        }
      ],
      "stateMutability": "view",
      "type": "function"
    },
    {
      "inputs": [
        {
          "internalType": "address",
          "name": "user",
          "type": "address"
        }
      ],
      "name": "getSubscription",
      "outputs": [
        {
          "components": [
            {
              "internalType": "address",
              "name": "user",
              "type": "address"
            },
            {
              "internalType": "enum SpellBlocPayments.PlanType",
              "name": "planType",
              "type": "uint8"
            },
            {
              "internalType": "uint256",
              "name": "startTime",
              "type": "uint256"
            },
            {
              "internalType": "uint256",
              "name": "endTime",
              "type": "uint256"
            },
            {
              "internalType": "bool",
              "name": "active",
              "type": "bool"
            },
            {
              "internalType": "uint256",
              "name": "amountPaid",
              "type": "uint256"
            }
          ],
          "internalType": "struct SpellBlocPayments.Subscription",
          "name": "",
          "type": "tuple"
        }
      ],
      "stateMutability": "view",
      "type": "function"
    },
    {
      "inputs": [
        {
          "internalType": "address",
          "name": "user",
          "type": "address"
        }
      ],
      "name": "getUserAchievements",
      "outputs": [
        {
          "components": [
            {
              "internalType": "address",
              "name": "user",
              "type": "address"
            },
            {
              "internalType": "uint256",
              "name": "achievementId",
              "type": "uint256"
            },
            {
              "internalType": "uint256",
              "name": "amountPaid",
              "type": "uint256"
            },
            {
              "internalType": "uint256",
              "name": "timestamp",
              "type": "uint256"
            }
          ],
          "internalType": "struct SpellBlocPayments.AchievementPurchase[]",
          "name": "",
          "type": "tuple[]"
        }
      ],
      "stateMutability": "view",
      "type": "function"
    },
    {
      "inputs": [
        {
          "internalType": "address",
          "name": "user",
          "type": "address"
        }
      ],
      "name": "isSubscriptionActive",
      "outputs": [
        {
          "internalType": "bool",
          "name": "",
          "type": "bool"
        }
      ],
      "stateMutability": "view",
      "type": "function"
    },
    {
      "inputs": [],
      "name": "owner",
      "outputs": [
        {
          "internalType": "address",
          "name": "",
          "type": "address"
        }
      ],
      "stateMutability": "view",
      "type": "function"
    },
    {
      "inputs": [],
      "name": "pause",
      "outputs": [],
      "stateMutability": "nonpayable",
      "type": "function"
    },
    {
      "inputs": [],
      "name": "paused",
      "outputs": [
        {
          "internalType": "bool",
          "name": "",
          "type": "bool"
        }
      ],
      "stateMutability": "view",
      "type": "function"
    },
    {
      "inputs": [
        {
          "internalType": "enum SpellBlocPayments.PlanType",
          "name": "",
          "type": "uint8"
        }
      ],
      "name": "planPrices",
      "outputs": [
        {
          "internalType": "uint256",
          "name": "",
          "type": "uint256"
        }
      ],
      "stateMutability": "view",
      "type": "function"
    },
    {
      "inputs": [
        {
          "internalType": "uint256",
          "name": "_achievementId",
          "type": "uint256"
        }
      ],
      "name": "purchaseAchievement",
      "outputs": [],
      "stateMutability": "payable",
      "type": "function"
    },
    {
      "inputs": [
        {
          "internalType": "enum SpellBlocPayments.PlanType",
          "name": "_planType",
          "type": "uint8"
        }
      ],
      "name": "purchaseSubscription",
      "outputs": [],
      "stateMutability": "payable",
      "type": "function"
    },
    {
      "inputs": [],
      "name": "renounceOwnership",
      "outputs": [],
      "stateMutability": "nonpayable",
      "type": "function"
    },
    {
      "inputs": [
        {
          "internalType": "address",
          "name": "",
          "type": "address"
        }
      ],
      "name": "subscriptions",
      "outputs": [
        {
          "internalType": "address",
          "name": "user",
          "type": "address"
        },
        {
          "internalType": "enum SpellBlocPayments.PlanType",
          "name": "planType",
          "type": "uint8"
        },
        {
          "internalType": "uint256",
          "name": "startTime",
          "type": "uint256"
        },
        {
          "internalType": "uint256",
          "name": "endTime",
          "type": "uint256"
        },
        {
          "internalType": "bool",
          "name": "active",
          "type": "bool"
        },
        {
          "internalType": "uint256",
          "name": "amountPaid",
          "type": "uint256"
        }
      ],
      "stateMutability": "view",
      "type": "function"
    },
    {
      "inputs": [],
      "name": "totalAchievementsSold",
      "outputs": [
        {
          "internalType": "uint256",
          "name": "",
          "type": "uint256"
        }
      ],
      "stateMutability": "view",
      "type": "function"
    },
    {
      "inputs": [],
      "name": "totalRevenue",
      "outputs": [
        {
          "internalType": "uint256",
          "name": "",
          "type": "uint256"
        }
      ],
      "stateMutability": "view",
      "type": "function"
    },
    {
      "inputs": [],
      "name": "totalSubscribers",
      "outputs": [
        {
          "internalType": "uint256",
          "name": "",
          "type": "uint256"
        }
      ],
      "stateMutability": "view",
      "type": "function"
    },
    {
      "inputs": [
        {
          "internalType": "address",
          "name": "newOwner",
          "type": "address"
        }
      ],
      "name": "transferOwnership",
      "outputs": [],
      "stateMutability": "nonpayable",
      "type": "function"
    },
    {
      "inputs": [],
      "name": "unpause",
      "outputs": [],
      "stateMutability": "nonpayable",
      "type": "function"
    },
    {
      "inputs": [
        {
          "internalType": "uint256",
          "name": "_achievementId",
          "type": "uint256"
        },
        {
          "internalType": "uint256",
          "name": "_newPrice",
          "type": "uint256"
        }
      ],
      "name": "updateAchievementPrice",
      "outputs": [],
      "stateMutability": "nonpayable",
      "type": "function"
    },
    {
      "inputs": [
        {
          "internalType": "enum SpellBlocPayments.PlanType",
          "name": "_planType",
          "type": "uint8"
        },
        {
          "internalType": "uint256",
          "name": "_newPrice",
          "type": "uint256"
        }
      ],
      "name": "updatePlanPrice",
      "outputs": [],
      "stateMutability": "nonpayable",
      "type": "function"
    },
    {
      "inputs": [
        {
          "internalType": "address",
          "name": "",
          "type": "address"
        },
        {
          "internalType": "uint256",
          "name": "",
          "type": "uint256"
        }
      ],
      "name": "userAchievements",
      "outputs": [
        {
          "internalType": "address",
          "name": "user",
          "type": "address"
        },
        {
          "internalType": "uint256",
          "name": "achievementId",
          "type": "uint256"
        },
        {
          "internalType": "uint256",
          "name": "amountPaid",
          "type": "uint256"
        },
        {
          "internalType": "uint256",
          "name": "timestamp",
          "type": "uint256"
        }
      ],
      "stateMutability": "view",
      "type": "function"
    },
    {
      "inputs": [
        {
          "internalType": "uint256",
          "name": "_amount",
          "type": "uint256"
        }
      ],
      "name": "withdrawFunds",
      "outputs": [],
      "stateMutability": "nonpayable",
      "type": "function"
    },
    {
      "stateMutability": "payable",
      "type": "receive"
    }
  ],
  "bytecode": "0x608060405234801561001057600080fd5b50600160005561001f3361013f565b6001805460ff60a01b191690556722b1c8c1227a00007f3617319a054d772f909f7c479a2cebe5066e836a939412e32403c99029b92eff5568015af1d78b58c400007fa15bc60c955c405d20d9149c709e2460f1c2d9a497496a7f46004d1772c3054c5568022b1c8c1227a000007fc3a24b0501bd2c13a7e57f2db4369ec4c223447539fc0724a9d55ac4a06ebd4d5560046020526706f05b59d3b200007fabd6e7cb50984ff9c2f3e18a2660c3353dadf4e3291deeb275dae2cd1e44fe0555670de0b6b3a76400007f91da3fd0782e51c6b3986e9e672fd566868e71f3dbc2d6c2cd6fbb3e361af2a7556003600052671bc16d674ec800007f2e174c10e159ea99b867ce3205125c24a42d128804e4070ed6fcc8cc98166aa055610191565b600180546001600160a01b038381166001600160a01b0319831681179093556040519116919082907f8be0079c531659141344cd1fd0a4f28419497f9722a3daafe3b4186f6b6457e090600090a35050565b611733806101a06000396000f3fe60806040526004361061016a5760003560e01c80638da5cb5b116100d1578063cbc5c5921161008a578063f046395a11610064578063f046395a1461044f578063f09153c4146104c1578063f2fde38b146104ee578063f5727c331461050e57600080fd5b8063cbc5c59214610414578063db2e21bc14610427578063e146fd631461043c57600080fd5b80638da5cb5b1461033857806393d81d5814610360578063b2878dcb14610380578063b33187e7146103a0578063bf2d9e0b146103cd578063c59d4847146103e357600080fd5b806335dc2e961161012357806335dc2e961461029a5780633f4ba83a146102c75780635c975abb146102dc5780636f9fb98a146102fb578063715018a61461030e5780638456cb591461032357600080fd5b80630cbebc241461018e578063139230df146101c457806314401329146101e8578063155dd5ee1461021857806315e2475f1461023a57806324548c601461025057600080fd5b36610189573460066000828254610181919061147c565b925050819055005b600080fd5b34801561019a57600080fd5b506101ae6101a93660046114b1565b61052e565b6040516101bb9190611504565b60405180910390f35b3480156101d057600080fd5b506101da60085481565b6040519081526020016101bb565b3480156101f457600080fd5b506102086102033660046114b1565b610600565b60405190151581526020016101bb565b34801561022457600080fd5b50610238610233366004611559565b6106b0565b005b34801561024657600080fd5b506101da60075481565b34801561025c57600080fd5b5061027061026b366004611572565b6107fb565b604080516001600160a01b03909516855260208501939093529183015260608201526080016101bb565b3480156102a657600080fd5b506101da6102b5366004611559565b60046020526000908152604090205481565b3480156102d357600080fd5b5061023861084b565b3480156102e857600080fd5b50600154600160a01b900460ff16610208565b34801561030757600080fd5b50476101da565b34801561031a57600080fd5b5061023861085d565b34801561032f57600080fd5b5061023861086f565b34801561034457600080fd5b506001546040516001600160a01b0390911681526020016101bb565b34801561036c57600080fd5b5061023861037b3660046114b1565b61087f565b34801561038c57600080fd5b5061023861039b36600461159c565b610917565b3480156103ac57600080fd5b506101da6103bb3660046115cd565b60036020526000908152604090205481565b3480156103d957600080fd5b506101da60065481565b3480156103ef57600080fd5b50600654600754600854604080519384526020840192909252908201526060016101bb565b6102386104223660046115cd565b610931565b34801561043357600080fd5b50610238610d23565b61023861044a366004611559565b610dfc565b34801561045b57600080fd5b506104af61046a3660046114b1565b6002602081905260009182526040909120805460018201549282015460038301546004909301546001600160a01b03831694600160a01b90930460ff90811694169086565b6040516101bb969594939291906115e8565b3480156104cd57600080fd5b506104e16104dc3660046114b1565b61100a565b6040516101bb9190611629565b3480156104fa57600080fd5b506102386105093660046114b1565b6110aa565b34801561051a57600080fd5b50610238610529366004611696565b611120565b61056a6040805160c081019091526000808252602082019081526020016000815260200160008152602001600015158152602001600081525090565b6001600160a01b03828116600090815260026020818152604092839020835160c0810190945280549485168452929390840191600160a01b90910460ff16908111156105b8576105b86114cc565b60028111156105c9576105c96114cc565b81526001820154602082015260028201546040820152600382015460ff161515606082015260049091015460809091015292915050565b6001600160a01b038181166000908152600260208181526040808420815160c08101909252805495861682529394859491939192840191600160a01b90910460ff1690811115610652576106526114cc565b6002811115610663576106636114cc565b81526001820154602082015260028201546040820152600382015460ff161515606082015260049091015460809182015281015190915080156106a95750428160600151115b9392505050565b6106b861122c565b6106c0611286565b478111156107155760405162461bcd60e51b815260206004820152601d60248201527f496e73756666696369656e7420636f6e74726163742062616c616e636500000060448201526064015b60405180910390fd5b600081116107655760405162461bcd60e51b815260206004820152601d60248201527f416d6f756e74206d7573742062652067726561746572207468616e2030000000604482015260640161070c565b6001546040516001600160a01b039091169082156108fc029083906000818181858888f1935050505015801561079f573d6000803e3d6000fd5b506001546001600160a01b03166001600160a01b03167feaff4b37086828766ad3268786972c0cd24259d4c87a80f9d3963a3c3d999b0d826040516107e691815260200190565b60405180910390a26107f86001600055565b50565b6005602052816000526040600020818154811061081757600080fd5b600091825260209091206004909102018054600182015460028301546003909301546001600160a01b039092169450925084565b61085361122c565b61085b6112df565b565b61086561122c565b61085b6000611334565b61087761122c565b61085b611386565b61088761122c565b6001600160a01b03811660009081526002602052604090206003015460ff166108eb5760405162461bcd60e51b815260206004820152601660248201527527379030b1ba34bb329039bab139b1b934b83a34b7b760511b604482015260640161070c565b6001600160a01b0316600090815260026020819052604090912060038101805460ff1916905542910155565b61091f61122c565b60009182526004602052604090912055565b610939611286565b6109416113c9565b60036000826002811115610957576109576114cc565b6002811115610968576109686114cc565b8152602001908152602001600020543410156109bd5760405162461bcd60e51b8152602060048201526014602482015273125b9cdd59999a58da595b9d081c185e5b595b9d60621b604482015260640161070c565b60028160028111156109d1576109d16114cc565b1115610a135760405162461bcd60e51b8152602060048201526011602482015270496e76616c696420706c616e207479706560781b604482015260640161070c565b600080826002811115610a2857610a286114cc565b03610a37575062278d00610a3e565b506301e133805b336000908152600260205260409020600381015460ff168015610a645750428160020154115b15610b085781816002016000828254610a7d919061147c565b909155505080548390829060ff60a01b1916600160a01b836002811115610aa657610aa66114cc565b021790555034816004016000828254610abf919061147c565b909155505060028101546040805191825234602083015233917f0844521bd3c7295df35ca72576b1c04b6061d23891276d5c077cd73cbb3d31fc910160405180910390a2610c53565b6040518060c00160405280336001600160a01b03168152602001846002811115610b3457610b346114cc565b81526020014281526020018342610b4b919061147c565b81526001602080830191909152346040928301523360009081526002808352929020835181546001600160a01b03919091166001600160a01b0319821681178355928501519193919284926001600160a81b03199092161790600160a01b908490811115610bbb57610bbb6114cc565b02179055506040820151600182015560608201516002820155608082015160038201805460ff191691151591909117905560a09091015160049091015560078054906000610c08836116b2565b9190505550336001600160a01b03167f559531f26d3d225cebcd22eb4b5a893fffe267028468d998315d80fd4bdd22fb848434604051610c4a939291906116cb565b60405180910390a25b3460066000828254610c65919061147c565b90915550600390506000846002811115610c8157610c816114cc565b6002811115610c9257610c926114cc565b815260200190815260200160002054341115610d1757336108fc60036000866002811115610cc257610cc26114cc565b6002811115610cd357610cd36114cc565b81526020019081526020016000205434610ced91906116ea565b6040518115909202916000818181858888f19350505050158015610d15573d6000803e3d6000fd5b505b50506107f86001600055565b610d2b61122c565b4780610d705760405162461bcd60e51b81526020600482015260146024820152734e6f2066756e647320746f20776974686472617760601b604482015260640161070c565b6001546040516001600160a01b039091169082156108fc029083906000818181858888f19350505050158015610daa573d6000803e3d6000fd5b506001546001600160a01b03166001600160a01b03167feaff4b37086828766ad3268786972c0cd24259d4c87a80f9d3963a3c3d999b0d82604051610df191815260200190565b60405180910390a250565b610e04611286565b610e0c6113c9565b600081815260046020526040902054610e675760405162461bcd60e51b815260206004820152601960248201527f416368696576656d656e74206e6f7420617661696c61626c6500000000000000604482015260640161070c565b600081815260046020526040902054341015610ebc5760405162461bcd60e51b8152602060048201526014602482015273125b9cdd59999a58da595b9d081c185e5b595b9d60621b604482015260640161070c565b33600081815260056020908152604080832081516080810183529485528483018681523492860183815242606088019081528354600180820186559488529587209751600490960290970180546001600160a01b0319166001600160a01b03909616959095178555905191840191909155516002830155925160039091015560068054909190610f4d90849061147c565b909155505060088054906000610f62836116b2565b90915550506040805182815234602082015233917f61be26b85c552570d3d3dbaa9543ccda38650e4b6e2c5c4799266d80b8ec0423910160405180910390a26000818152600460205260409020543411156110005760008181526004602052604090205433906108fc90610fd690346116ea565b6040518115909202916000818181858888f19350505050158015610ffe573d6000803e3d6000fd5b505b6107f86001600055565b6001600160a01b0381166000908152600560209081526040808320805482518185028101850190935280835260609492939192909184015b8282101561109f576000848152602090819020604080516080810182526004860290920180546001600160a01b03168352600180820154848601526002820154928401929092526003015460608301529083529092019101611042565b505050509050919050565b6110b261122c565b6001600160a01b0381166111175760405162461bcd60e51b815260206004820152602660248201527f4f776e61626c653a206e6577206f776e657220697320746865207a65726f206160448201526564647265737360d01b606482015260840161070c565b6107f881611334565b61112861122c565b600081116111785760405162461bcd60e51b815260206004820152601c60248201527f5072696365206d7573742062652067726561746572207468616e203000000000604482015260640161070c565b600060036000846002811115611190576111906114cc565b60028111156111a1576111a16114cc565b815260200190815260200160002054905081600360008560028111156111c9576111c96114cc565b60028111156111da576111da6114cc565b8152602001908152602001600020819055507f0632454824820b4b1fd6f29fdc288d3b437e7ae937523b584eed6967b39e759583828460405161121f939291906116cb565b60405180910390a1505050565b6001546001600160a01b0316331461085b5760405162461bcd60e51b815260206004820181905260248201527f4f776e61626c653a2063616c6c6572206973206e6f7420746865206f776e6572604482015260640161070c565b6002600054036112d85760405162461bcd60e51b815260206004820152601f60248201527f5265656e7472616e637947756172643a207265656e7472616e742063616c6c00604482015260640161070c565b6002600055565b6112e7611416565b6001805460ff60a01b191690557f5db9ee0a495bf2e6ff9c91a7834c1ba4fdd244a5e8aa4e537bd38aeae4b073aa335b6040516001600160a01b03909116815260200160405180910390a1565b600180546001600160a01b038381166001600160a01b0319831681179093556040519116919082907f8be0079c531659141344cd1fd0a4f28419497f9722a3daafe3b4186f6b6457e090600090a35050565b61138e6113c9565b6001805460ff60a01b1916600160a01b1790557f62e78cea01bee320cd4e420270b5ea74000d11b0c9f74754ebdbfc544b05a2586113173390565b600154600160a01b900460ff161561085b5760405162461bcd60e51b815260206004820152601060248201526f14185d5cd8589b194e881c185d5cd95960821b604482015260640161070c565b600154600160a01b900460ff1661085b5760405162461bcd60e51b815260206004820152601460248201527314185d5cd8589b194e881b9bdd081c185d5cd95960621b604482015260640161070c565b634e487b7160e01b600052601160045260246000fd5b8082018082111561148f5761148f611466565b92915050565b80356001600160a01b03811681146114ac57600080fd5b919050565b6000602082840312156114c357600080fd5b6106a982611495565b634e487b7160e01b600052602160045260246000fd5b6003811061150057634e487b7160e01b600052602160045260246000fd5b9052565b81516001600160a01b0316815260208083015160c0830191611528908401826114e2565b50604083015160408301526060830151606083015260808301511515608083015260a083015160a083015292915050565b60006020828403121561156b57600080fd5b5035919050565b6000806040838503121561158557600080fd5b61158e83611495565b946020939093013593505050565b600080604083850312156115af57600080fd5b50508035926020909101359150565b8035600381106114ac57600080fd5b6000602082840312156115df57600080fd5b6106a9826115be565b6001600160a01b038716815260c0810161160560208301886114e2565b60408201959095526060810193909352901515608083015260a09091015292915050565b602080825282518282018190526000919060409081850190868401855b8281101561168957815180516001600160a01b03168552868101518786015285810151868601526060908101519085015260809093019290850190600101611646565b5091979650505050505050565b600080604083850312156116a957600080fd5b61158e836115be565b6000600182016116c4576116c4611466565b5060010190565b606081016116d982866114e2565b602082019390935260400152919050565b8181038181111561148f5761148f61146656fea2646970667358221220f16570bee72303edb9db0337dea8963488e77c3fffb8dc267397b7905fe9bcc064736f6c63430008130033",
  "linkReferences": {},
  "deployedLinkReferences": {}
}